:060000000A128A110C280F
:10000800FE00030EFC000A08FD000A128A111728D8
:100018000A128A110F2883120313A001A101830178
:100028000A128A11A129831203130C1F1C281D28E8
:10003800A5281F0CF900790C0F390C3A031D252847
:1000480026284F281E08F9000310790C7C3E9500DD
:100058001E080139F900F90EF90D17087906DF397C
:1000680079069700831603131E08F900073003105A
:10007800F90CFF3E031D3B287908FA00FA0E83129B
:10008800031317087A06EF397A0697001F08C33951
:1000980028389F00A4281F0CF900790C0F390A3A58
:1000A800031D5728582881281E08F9000310790CC9
:1000B8007C3E9B001E080139F900F90EF90D1D0858
:1000C8007906DF3979069D00831603131E08F900A7
:1000D80007300310F90CFF3E031D6D287908FA005C
:1000E800FA0E831203131D087A06EF397A069D006B
:1000F8001F08C3391C389F00A4281F0CF900790C6D
:100108000F39073A031D89288A28A4280530F000EA
:100118000030F1001E08F900FA017908F2007A08A7
:10012800F3000A128A11DA200A128A117008FB00F9
:100138007B0883120313A0001F08C33930389F00BF
:100148000C130B1DA828A928D3282108013EF90063
:100158007908A1002108031DB228B328B728CD309B
:10016800F9007908A1002008CD3EF90000300318F5
:100178000130FA007A08803A803C031DC5287908C6
:1001880021020318C828C928CD288312031307148D
:10019800D0288312031307100B11E63081007D0865
:1001A8008A007C0E8300FE0E7E0E0900F601F11F08
:1001B800DE28DF28E628F009F109F00A0319F10A18
:1001C800F601F60AF31FE928EA28F328F209F309E9
:1001D800F20A0319F30A0130F4007408F606F7016D
:1001E800F801700871040319FA28FB283229F5016F
:1001F800F50A092901300310F00DF10DFF3E031D2A
:10020800FF280130F4007408F507F11F0C290D29A7
:10021800FE2801300310F70DF80DFF3E031D0E29CF
:1002280071087302031D1A2970087202031C1D2924
:100238001E2925297008F2027108031CF303F30232
:10024800771401300310F10CF00CFF3E031D262932
:100258000130F502031D312932290D2976080319C9
:10026800362937293C29F709F809F70A0319F80A42
:100278007808F1007708F000080083160317880152
:10028800890109160915831603138714071506141F
:1002980086140915831203138601831603130F149A
:1002A80070308F048B170B178B160B110C178312DA
:1002B80003130C131F141F08C33930389F001F087D
:1002C8003F3940389F00203083120313A200A20B4D
:1002D8006B290000831203139F14831603139F13C3
:1002E8001F129F12F93092003F30831203139705B3
:1002F8001708F0390C3897000F3095003030970404
:100308001D08F0390C389D000F309B009D161D16F6
:100318008C100330920412158C1C9329942990296F
:100328008C1083160313870181128111F83081051F
:10033800E63083120313810008000A128A11412152
:100348000A128A11CD3083120313A3002308A100D7
:100358009F18AF29B029AC29203083120313A300BA
:10036800A30BB4290000831203139F14AC290A12AB
:040378008A110C28B2
:04400E00D420FF3F7C
:00000001FF
